:020000040800F2
:10000000685B002001030008734F0008870E00089A
:10001000714F0008D10B0008E955000800000000EE
:10002000000000000000000000000000490200087D
:10003000A10C0008000000009D020008C15100084A
:100040001B0300081B0300081B0300081B03000818
:100050001B0300081B0300081B0300081B03000808
:100060001B0300081B0300081B0300081B030008F8
:100070001B0300081B0300081B0300081B030008E8
:100080001B0300081B0300081B0300081B030008D8
:100090001B0300081B0300081B0300081B030008C8
:1000A0001B0300081B0300081B0300081B030008B8
:1000B0001B03000831520008B95200081B03000856
:1000C0001B0300081B0300081B0300081B03000898
:1000D0001B0300084D5400081B0300081B03000805
:1000E0001B0300081B0300081B0300081B03000878
:1000F0001B0300081B0300081B0300081B03000868
:100100001B0300081B0300081B0300081B03000857
:100110001B0300081B0300081B0300081B03000847
:100120001B0300081B0300081B0300081B03000837
:100130001B0300081B0300081B0300081B03000827
:100140001B0300081B0300081B0300081B03000817
:100150001B0300081B0300081B0300081B03000807
:100160001B0300081B0300081B0300081B030008F7
:100170001B0300081B0300081B0300081B030008E7
:100180001B0300081B03000800F002F800F04DF804
:100190000AA090E8000C82448344AAF10107DA45E2
:1001A00001D100F042F8AFF2090EBAE80F0013F0E7
:1001B000010F18BFFB1A43F001031847A096000077
:1001C000C0960000103A24BF78C878C1FAD8520708
:1001D00024BF30C830C144BF04680C6070470000C1
:1001E0000023002400250026103A28BF78C1FBD840
:1001F000520728BF30C148BF0B607047642900F028
:100200001F81752900F01C81782900F05581632930
:1002100000F0B982732900F0BE82002070471FB53C
:1002200007F0C4FE1FBD10B510BD00F023FB114642
:10023000FFF7F5FF05F048FB00F041FB03B4FFF7C3
:10024000F2FF03BC05F0D1F92A4B19680868B0E841
:10025000F04F80F30988BFF36F8F4FF0000080F3F9
:10026000118870470000000006480068006880F3AD
:10027000088862B661B6BFF34F8FBFF36F8F00DFA0
:1002800000BF00BF08ED00E0DFF80C00016841F49A
:1002900070010160704700BF88ED00E0EFF3098056
:1002A000BFF36F8F134B1A681EF0100F08BF20EDBD
:1002B000108A20E9F04F106008B44FF0100080F36E
:1002C0001188BFF34F8FBFF36F8F06F0FFFC4FF025
:1002D000000080F3118808BC19680868B0E8F04F86
:1002E0001EF0100F08BFB0EC108A80F30988BFF32E
:1002F0006F8F704768000020EFF3058070470000A3
:100300000948804709480047FEE7FEE7FEE7FEE7A9
:10031000FEE7FEE7FEE7FEE7FEE7FEE704480549E5
:10032000054A064B70470000D551000889010008B6
:1003300068550020685B002068570020685700203F
:10034000704700000FB4044910B503AA029800F0EA
:1003500027FA10BC5DF814FB540000200FB41CB544
:10036000074B06AA7B4469460090059800F0E9F91E
:100370000020694600F0F8F91CBC5DF814FB000091
:10038000010400002DE9F0410E46044600202062E1
:100390002046E168884730B3252805D0D4E90121FB
:1003A0009047206A401CF2E7E16820460027884712
:1003B000050018D0A5F14100192802D820354FF4C6
:1003C00000673246294620462760FFF717FF40B1F5
:1003D000012804D0F61D26F007060836D8E7361D9A
:1003E000D6E72846DAE7206ABDE8F08170B50C460A
:1003F0000546012A05D02878800600D5EA69002341
:1004000002E0012305E05B1C934202D2E05C00287D
:10041000F9D1A869E618C01AA861286A18442862A8
:100420002846AFF3008004E0D5E9012114F8010B60
:100430009047B442F8D32846AFF3008070BD000067
:100440002DE9F0410646002410687529314616A5AD
:1004500010D0AFF30080002802DA404213A507E075
:1004600031688A0701D512A502E0490704D511A514
:10047000012401E0AFF3008000210A2206F12407E5
:1004800009E0B0FBF2FCB0FBF2F302FB1C003030E1
:1004900078541846491C0028F3D123462A46304692
:1004A000BDE8F04100F0EFB8000000002D000000B2
:1004B0002B0000002000000070B504460D462146C8
:1004C0001068AFF300802188090502D50F4A7A44ED
:1004D00002E00E4A7A440E32002104F1240305E0C2
:1004E00000F00F060009965D5E54491C0028F7D104
:1004F00020780023000704D5702D02D009B1022313
:1005000011322046BDE8704000F0BDB8AE92000048
:1005100040EA0103024630B59B0710D14FF0013489
:1005200000E008C208C91D1B9D4315EAC41FF8D08E
:1005300013F0FF0102F8011B0DD01B0AF8E711F8B8
:10054000013B002B02F8013B05D011F8013B002BC9
:1005500002F8013BF3D130BD10B5431C02E010F8A6
:10056000011B71B18107FAD14FF0013202C88C1A18
:100570008C4314EAC211F9D0C01A0A0603D0C01E77
:1005800010BDC01A10BD0A0401D0801E10BD0902A2
:10059000FCD0401E10BD032A40F2308010F0030C46
:1005A00000F0158011F8013BBCF1020F624498BFC6
:1005B00011F801CB00F8013B38BF11F8013BA2F163
:1005C000040298BF00F801CB38BF00F8013B11F0DE
:1005D000030300F0F780083AC0F0088051F8043BAC
:1005E000083A51F804CBA0E80810F5E7121D5CBFEB
:1005F00051F8043B40F8043BAFF30080D20724BF1E
:1006000011F8013B11F801CB48BF11F8012B24BFB1
:1006100000F8013B00F801CB48BF00F8012B704700
:1006200002F0FF0343EA032242EA024200F0FEB86E
:100630004FF0000200B5134694469646203922BF7B
:10064000A0E80C50A0E80C50B1F12001BFF4F7AFC6
:10065000090728BFA0E80C5048BF0CC05DF804EBA8
:10066000890028BF40F8042B08BF704748BF20F816
:10067000022B11F0804F18BF00F8012B7047704714
:100680007047704770472DE9F0470D4699469246EE
:10069000044600F124080168880604D5E06921F0C9
:1006A0001001216000E00120A84201DD471B00E0AD
:1006B0000027A1697A1902EB0900081AA0612078C5
:1006C000C00602D42046AFF30080002608E0D4E93B
:1006D00001211AF806009047206A401C761C20620F
:1006E0004E45F4DB2078C0060AD52046AFF30080E3
:1006F00006E0D4E9012130209047206A401C2062A6
:10070000381EA7F10107F4DC07E0D4E9012118F84D
:1007100005009047206A401C2062281EA5F10105B3
:10072000F3DC2046AFF300802078000602D50220DB
:10073000BDE8F0870120FBE701694A1C02610878E7
:10074000704700B58FB0CDE9013100210591054911
:100750007944CDE9031011466846FFF713FE0FB048
:1007600000BD0000E5FFFFFF0A6802F8010B0A6008
:10077000704710B5436913B1AFF3008001E0FFF794
:1007800035FE012010BD127800F124010A7000220C
:100790004A700122EDE711684FF0FF32E9E70000EF
:1007A000074B70B50D467B44FFF7CBFF0446284648
:1007B00000F05CF810B14FF0FF3070BD204670BD06
:1007C0008F50000010B5203AC0F00B80B1E81850EF
:1007D000203AA0E81850B1E81850A0E81850BFF42B
:1007E000F5AF5FEA027C24BFB1E81850A0E81850CA
:1007F00044BF18C918C0BDE810405FEA827C24BF1E
:1008000051F8043B40F8043B08BF7047D20728BFAB
:1008100031F8023B48BF11F8012B28BF20F8023BFA
:1008200048BF00F8012B70474FF000020429C0F0C8
:10083000128010F0030C3FF4FDAECCF1040CBCF1BF
:10084000020F18BF00F8012BA8BF20F8022BA1EB64
:100850000C01FFF7EFBE5FEAC17C24BF00F8012B5B
:1008600000F8012B48BF00F8012B7047007B00F017
:1008700080007047754600F02BF8AE4605006946CB
:10088000534620F00700854618B020B5FFF746FD17
:10089000BDE820404FF000064FF000074FF0000881
:1008A0004FF0000B21F00701AC46ACE8C009ACE802
:1008B000C009ACE8C009ACE8C0098D46704710B566
:1008C0000446AFF300802046BDE81040FFF7B6BCF9
:1008D00000487047085500200029816802D041F087
:1008E000010101E021F0010181607047084B10B562
:1008F000D3F8042307490A40D0E900142143D0E982
:100900000240044321431143C3F8041310BD000007
:1009100000200140E030FCFFC06C80B2704702460E
:10092000002012680A4200D00120704730B54268AA
:100930000F4B0C791A400B6842EA042213434360C0
:1009400082680C4B4D791A40D1E9034323438C68EC
:1009500044EA4504234313438360C26A097D22F4B9
:100960007002491EC9B242EA0151C16230BD0000A5
:10097000FFFEFFFCFDF7FFC070B5072609290AD965
:10098000C568A1F10A0404EB4404A640B543A340A2
:100990001D43C56007E0056901EB4104A640B5436E
:1009A000A3401D4305611F23072A09D2446B521E31
:1009B00002EB820293409C4391400C43446370BD20
:1009C0000D2A09D2046BD21F02EB820293409C4392
:1009D00091400C43046370BDC46A0D3A02EB82027D
:1009E00093409C4391400C43C46270BD816841F0C8
:1009F00080418160704700002DED048B134C9FED0A
:100A0000148B9FED159A1421052000F025FA07F0AC
:100A1000BCF953EC182B07F0CBF907F057F900EEAF
:100A2000100AFCEEC00A10EE900A80B200EE900AA6
:100A300020806420F8EE600A30EE600A20EE090A99
:100A400084ED0A0A05F0C6FEDDE700000000002084
:100A50006666666666664A3F00007A4430B50121E4
:100A60008DB0084604F0C2FA01210D02284604F0B8
:100A7000E1FA032020218DF82C000A9100248DF842
:100A80002F400AA9134800F081F90121284604F0FB
:100A9000DDFA0021284604F0D9FA069428020994C8
:100AA000CDE9070406A8FFF721FF8DF80440009464
:100AB0008DF80540029404940120074C8DF8140031
:100AC00069462046FFF732FF01212046FFF704FF69
:100AD0000DB030BD00000240002001407CB505F0A3
:100AE00033FD012421486502CDE9004000232A4658
:100AF0001FA1224806F002FE1C480023001DCDE97C
:100B000000402A461EA1214806F0F8FD17490220A0
:100B10000831CDE9000100232A461DA11F4806F037
:100B2000EDFD124903200C31CDE9000100232A46D6
:100B30001BA11E4806F0E2FD0C4904201031CDE94E
:100B4000000100232A461AA11C4806F0D7FD0749D8
:100B500005201431CDE9000100232A4618A11B48C5
:100B600006F0CCFDBDE87C4005F02ABD1000002059
:100B70006C6564305F7461736B0000004D58000851
:100B80006C6564315F7461736B00000095580008F8
:100B90004B45595F7461736B00000000CD0E000877
:100BA0004144435F7461736B00000000F909000861
:100BB0004C43445F7461736B00000000DD4E00081D
:100BC0004350555F7461736B00000000D50B000843
:100BD000FEE70000E4B04FF4C8744FF47A75214684
:100BE0006846FFF725FD684605F0C2FE10A0FFF736
:100BF000A9FB1B48FFF7A6FB69461AA0FFF7A2FB5B
:100C00000BA0FFF79FFB21466846FFF711FD6846E2
:100C100005F056FE1448FFF795FB694611A0FFF753
:100C200091FB12A0FFF78EFB284605F0D3FDD6E717
:100C30002D2D2D2D2D2D2D2D2D2D2D2D2D2D2D2DE4
:100C40002D2D2D2D2D2D2D2D2D2D2D2D2D2D2D2DD4
:100C50002D2D2D2D2D2D2D2D2D2D2D2D2D0D0A0034
:100C6000A897000825730000089800082D2D2D2D49
:100C70002D2D2D2D2D2D2D2D2D2D2D2D2D2D2D2DA4
:100C80002D2D2D2D2D2D2D2D2D2D2D2D2D2D2D2D94
:100C90002D2D2D2D2D2D2D2D2D0D0A0A000000009E
:100CA000704700008000A0F1C0400029016802D018
:100CB00041F0010101E0024A11400160704700006B
:100CC000FEFF0F0010B5D0E901121143D0E9032354
:100CD0001A4311434269114382691143C2691143A6
:100CE000026A1143426A1143826A1143C26A114384
:100CF000026B114302689200A2F1C0421160816848
:100D0000082907D101688900A1F1C0410A6842F0B1
:100D100040020A60416BD1E9002342EA03128B686A
:100D20008C891B0243EA04431A430B8A42EA0352AA
:100D30000B7D896942EA03620A4301688900A1F1D7
:100D4000C0414A60C16AB1F5804F08D000686FF0B9
:100D500070418000A0F1C040C0F8041110BD816B4B
:100D6000D1E9002342EA03128B680C8A1B0243EA92
:100D700004531A430B7D896942EA036200680A43FF
:100D80008000A0F1C040C0F8042110BDF0B50022E1
:100D900001274FF0030C0B6807FA02F52B40AB421A
:100DA0002CD1066853000CFA03F4A64306600E79B2
:100DB000D0F800E09E4046EA0E0606600E79012E4D
:100DC00001D0022E12D18668A64386604E79D0F8F3
:100DD00008E09E4046EA0E0686604668AE434660DE
:100DE00045688E799640B6B235434560C568A543DF
:100DF000C560CC799C40C3681C43C460521C102A57
:100E0000C9D3F0BD4B07DB0E9A40C90810B500EB03
:100E10008100016A0F249C40A1430162016A1143D1
:100E2000016210BD0183704710B50A4C01460723CB
:100E300001222046FFF7A0FD2046FFF7D7FD022143
:100E40002046FFF76CFD0028F9D02046BDE8104091
:100E5000FFF762BD002001402DE9F04100250E465C
:100E600007462C4608E03846FFF7DEFF054405201C
:100E700004F068FC641CE4B2B442F4D3B5FBF6F0B1
:100E800080B2BDE8F081FEE71CB50121112004F01D
:100E9000ADF81C20009000208DF8040003208DF890
:100EA000050001248DF8074069460648FFF76EFFEC
:100EB00002208DF80700009469460348FFF766FF9B
:100EC0001CBD0000001002400000024008B50B4CA1
:100ED0004FF47A7500232A466946A06806F01CF98B
:100EE000012806D006A0FFF72DFA0A2005F072FCB3
:100EF000F0E705A00099FFF725FAF6E700000020CB
:100F0000CAA7B0DC00000000BDD3CAD5B5BDCFFB79
:100F1000CFA2B6D3C1D0CAFDBEDD7563517565756C
:100F2000654D736756616C7565203D2025640D0A1B
:100F3000000000002DE9F043184F064600243888D1
:100F40007D884543B888A0F5D041043902D1B879ED
:100F5000012808D00021084603F01CFE03F0AEFF74
:100F60004FF0D84016E00020B8714FF02A09A7F8DA
:100F70000A904FF02B08A7F80C80014603F00AFEF8
:100F80000120B871A7F80A80A7F80C90E6E7A0F84E
:100F90008060641CAC42FAD3BDE8F083E40000201A
:100FA0002DE9F04F4A492A232B24898845F2105A0B
:100FB0004FF4305B4FF4285E4FF448754FF0F00C5F
:100FC00049F241394FF4A07745F210364FF4F072F0
:100FD00080B13F484FF00108494580F806800780FE
:100FE000A0F802C001D0B1423ED12C250581438139
:100FF000848157E036484FF00008494580F8068064
:10100000A0F800C0478006D0A1F5D04CBCF1040C7C
:1010100001D0B1420CD12C2505814381A1F5D043EB
:101020008481043B01D0B14244D10780428041E039
:10103000514507D1A0F808B0A0F80AE04FF42C51B0
:1010400081810EE0A1F5C856633E06D022210181C0
:1010500020214181212181812CE02C2101814481A9
:1010600083810280458025E0A1F5D04CBCF1040CC1
:1010700009D051450BD1A0F808B0A0F80AE04FF410
:101080002C53838121E02C250581448109E0A1F5C1
:10109000C85CBCF1630C12D022230381212343815D
:1010A00020238381A1F5D043043B01D0B14201D17B
:1010B00002804780BDE8F04F002003F069BC4FF08C
:1010C0002C0CA0F808C04381848105804280E9E7A8
:1010D000E40000202DE9F043414D91460C460246C4
:1010E000060AA9882846A1F5134340894FEA142827
:1010F000413B17D0A1F5A643103B13D0A1F5AA435D
:10110000103B13D02E46A1F5C857B3793688B61ACE
:10111000761E633F23D0A1F5D047043F3AD0012B80
:101120004DD04DE003F0BDFE304639E003F0B9FE8E
:10113000304603F0AAFE6889401C80B203F0B1FE7D
:10114000D0B203F0A2FEA88903F0ABFE404603F044
:101150009CFEA889401C80B203F0A3FE2BE003B9DB
:10116000B2B203F09EFE160A304603F08EFED0B2F5
:1011700003F08BFE304603F088FED0B203F085FE0C
:10118000A88903F08EFE404603F07FFEE0B203F034
:101190007CFE0DE0012B00D1B2B203F082FE100AFA
:1011A00003F073FED0B203F070FEA88903F079FE5D
:1011B000404603F06AFEE0B203F067FE07E0B2B219
:1011C000114603F085FEA889214603F081FE4FF009
:1011D000D840298920F87E1FA0F80290BDE8F0834E
:1011E000E40000202DE9F04FA1B0002401217A2075
:1011F0001F9403F0FBFE0121084603F003FF4FF4A8
:101200000040009001208DF804008DF80640022077
:101210008DF8050001208DF807006946FE48FFF7AC
:10122000B5FD4CF23370009002208DF804008DF86B
:10123000064003208DF8050001208DF8070069465F
:10124000F648FFF7A3FD4FF68070009002208DF85E
:1012500004008DF8064003208DF805000120F04DB4
:101260008DF8070069462846FFF790FDA814009006
:1012700002208DF804008DF8064003208DF805004B
:101280000120E84E8DF8070069463046FFF77EFDE5
:10129000A814009002208DF804008DF80640032069
:1012A0008DF805000120E04F8DF8070069463846AB
:1012B000FFF76CFD0C220021D848FFF7A3FD0C229C
:1012C0000121D648FFF79EFD0C220421D348FFF7E9
:1012D00099FD0C220521D148FFF794FD0C2208212D
:1012E000CE48FFF78FFD0C220921CC48FFF78AFD7D
:1012F0000C220A21C948FFF785FD0C220E21C748A0
:10130000FFF780FD0C220F21C448FFF77BFD0C2264
:1013100007212846FFF776FD0C2208212846FFF713
:1013200071FD0C2209212846FFF76CFD0C220A21D1
:101330002846FFF767FD0C220B212846FFF762FDC8
:101340000C2211462846FFF75DFD0C220D21284690
:10135000FFF758FD0C220E212846FFF753FD0C2203
:101360000F212846FFF74EFD0C2211463046FFF7AD
:1013700049FD0C2211463846FFF744FD0F20CDE908
:1013800011043C20CDE91304159409201694CDE9ED
:1013900017400820CDE919401B941C940620CDE984
:1013A00002041D941E941020CDE90440069400020E
:1013B000CDE90A40089407948000CDE90C400994D7
:1013C00011A8CDE90E4018A8109002A8FFF77AFCEA
:1013D00001210620FFF766FC322004F0B3F9012159
:1013E000002003F075FD322004F0ACF9002003F07A
:1013F0009DFA8E4A4FF0204A4FF6FF7B908049F2CB
:10140000413545F2103645F2105441F6631846F660
:101410000407FF2804D3584502D0B0F5134F74D108
:10142000D32003F03EFD03F077FA908003F074FAC6
:10143000908003F071FA0BEA0020D946908003F007
:101440006BFA918808439080A8425ED0BF2003F0D9
:1014500028FD03F061FA908003F05EFA908003F0BB
:101460005BFA908003F058FA09EA0020908003F0BC
:1014700053FA918808439080B84246D0D42003F0B4
:1014800010FD03F049FA908003F046FA908003F0D3
:1014900043FA09EA0020908003F03EFA918808435D
:1014A0009080B04231D04FF45A4003F0FAFC03F080
:1014B00033FA90804FF45B4003F0F3FC03F02CFA16
:1014C00009EA002090804FF45C4003F0EAFC03F04E
:1014D00023FA918808439080B0F5004F39D0A0429C
:1014E00013D0A12003F0DDFC03F016FA908003F086
:1014F00013FA09EA0020908003F00EFA918808435D
:10150000A0F5AE419080613920D080B2A84205D0CC
:10151000B04203D0A04201D040451CD1DAF81C11E2
:10152000504621F00F01CAF81C11DAF81C1121F401
:101530007061CAF81C11DAF81C1141F00301CAF8F5
:101540001C11DAF81C1141F4007121E0A2F80480AA
:10155000E4E79480E2E7B84203D0A0F545410539BD
:1015600018D1DAF81C11504621F00F01CAF81C11ED
:10157000DAF81C1121F47061CAF81C11DAF81C1198
:1015800041F00A01CAF81C11DAF81C1141F440615B
:10159000C0F81C119146918825A0FEF7D3FEB9F83A
:1015A0000400A8427DD1CF2003F07BFC002003F093
:1015B0006CFCC12003F069FC302003F066FCED20D8
:1015C00003F06FFC642003F060FC032003F05DFC7B
:1015D000122003F05AFC812003F057FCE82003F0AE
:1015E00060FC852003F051FC102003F04EFC7A20B3
:1015F00003F04BFCCB2003F054FC392003F045FCF6
:101600002C2003F042FC002003F03FFC342003F0C8
:101610003CFC022014E0000000040240000C0240E8
:10162000001002400014024000180240E4000020B4
:10163000204C43442049443A25780D0A000000001C
:1016400003F023FCF72003F02CFC202003F01DFC0A
:10165000EA2003F026FC002003F017FC002003F032
:1016600014FCC02003F01DFC1B2003F00EFCC12065
:1016700003F017FC012003F008FCC52003F011FC67
:10168000302003F002FC302003F0FFFBC72003F002
:1016900008FCB72003F0F9FB362003F002FC4820D9
:1016A00000E0A7E003F0F1FB3A2003F0FAFB55203D
:1016B00003F0EBFBB12003F0F4FB002003F0E5FBAB
:1016C0001A2003F0E2FBB62003F0EBFB0A2003F044
:1016D000DCFBA22003F0D9FBF22003F0E2FB0020A8
:1016E00003F0D3FB262003F0DCFB012003F0CDFB4D
:1016F000E02003F0D6FB0F2003F0C7FB2A2003F005
:10170000C4FB282003F0C1FB082003F0BEFB0E2021
:1017100003F0BBFB082003F0B8FB542003F0B5FB3B
:10172000A92003F0B2FB432003F0AFFB0A2003F033
:10173000ACFB0F2003F0A9FB002003F0A6FB002068
:1017400003F0A3FB002003F0A0FB002003F09DFBAF
:10175000E12003F0A6FB002003F097FB152003F027
:1017600094FB172003F091FB072003F08EFB112060
:1017700003F08BFB062003F088FB2B2003F085FB96
:10178000562003F082FB3C2003F07FFB052003F092
:101790007CFB102003F079FB0F2003F076FB3F2049
:1017A00003F073FB3F2003F070FB0F2003F06DFB91
:1017B0002B2003F076FB002003F067FB002003F0F2
:1017C00064FB012003F061FB3F2003F05EFB2A2055
:1017D00003F067FB002003F058FB002003F055FBEB
:1017E000002003F052FBEF2003F04FFB112003F029
:1017F00058FBA5E0B8427CD1112003F052FB142025
:1018000003F0A0FFD02003F04CFB072003F03DFBCA
:10181000422003F03AFB1D2003F037FBD12003F0F8
:1018200040FB002003F031FB1A2003F02EFB0920BF
:1018300003F02BFBD22003F034FB012003F025FB47
:10184000222003F022FBC02003F02BFB102003F02A
:101850001CFB3B2003F019FB002003F016FB0220C9
:1018600003F013FB112003F010FBC52003F019FB5C
:10187000032003F00AFBC82003F013FB002003F051
:1018800004FB252003F001FB212003F0FEFA0520D4
:1018900003F0FBFA002003F0F8FA0A2003F0F5FA4F
:1018A000652003F0F2FA252003F0EFFA772003F029
:1018B000ECFA502003F0E9FA0F2003F0E6FA0020DA
:1018C00003F0E3FAF82003F0ECFA012003F0DDFA6C
:1018D000FE2003F0E6FA002003F0D7FA022003F01E
:1018E000D4FA202003F0DDFA362003F0DAFA0820DB
:1018F00000E02BE003F0C9FA3A2003F0D2FA5520B9
:1019000003F0C3FA2B2003F0CCFA002003F0BDFA59
:10191000002003F0BAFA012003F0B7FA3F2003F0E9
:10192000B4FA2A2003F0BDFA002003F0AEFA00203A
:1019300003F0ABFA012003F0A8FADF2003F0A5FAC8
:10194000782003F0FFFE292001F0FBBEB0427CD1DD
:10195000ED2003F0A6FA012003F097FAFE2003F031
:1019600094FAEE2003F09DFADE2003F08EFA212097
:1019700003F08BFAF12003F094FA012003F085FACA
:10198000DF2003F08EFA102003F07FFAC42003F06A
:1019900088FA8F2003F079FAC62003F082FA00203B
:1019A00003F073FAE22003F070FAE22003F06DFA1C
:1019B000E22003F06AFABF2003F073FAAA2003F0D2
:1019C00064FAB02003F06DFA0D2003F05EFA0020F7
:1019D00003F05BFA0D2003F058FA002003F055FAEB
:1019E000112003F052FA002003F04FFA192003F0FF
:1019F0004CFA002003F049FA212003F046FA0020B7
:101A000003F043FA2D2003F040FA002003F03DFAE2
:101A10003D2003F03AFA002003F037FA5D2003F08E
:101A200034FA002003F031FA5D2003F02EFA002092
:101A300003F02BFAB12003F034FA802003F025FAEA
:101A4000002003F022FA8B2000E0FCE303F01DFAF3
:101A5000002003F01AFA962003F017FA002003F092
:101A600014FAB22003F01DFA002003F00EFA002051
:101A700003F00BFA022003F008FA002003F005FA45
:101A8000032003F002FA002003F0FFF9B32003F073
:101A900008FA002003F0F9F9002003F0F6F900201D
:101AA00003F0F3F9002003F0F0F9002003F0EDF962
:101AB000002003F0EAF9002003F0E7F9002003F02A
:101AC000E4F9002003F0E1F9002003F0DEF9002042
:101AD00003F0DBF9002003F0D8F9002003F0D5F97A
:101AE000002003F0D2F9002003F0CFF9002003F02A
:101AF000CCF9002003F0C9F9002003F0C6F900205A
:101B000003F0C3F9002003F0C0F9002003F0BDF991
:101B1000002003F0BAF9002003F0B7F9002003F029
:101B2000B4F9B42003F0BDF98B2003F0AEF9002026
:101B300003F0ABF9962003F0A8F9002003F0A5F913
:101B4000A12003F0A2F9002003F09FF9B52003F0D3
:101B5000A8F9022003F099F9002003F096F9032078
:101B600003F093F9002003F090F9042003F08DF9BD
:101B7000002003F08AF9B62003F093F9002003F067
:101B800084F9002003F081F9B72003F08AF90020DE
:101B900003F07BF9002003F078F93F2003F075F99A
:101BA000002003F072F95E2003F06FF9002003F0CB
:101BB0006CF9642003F069F9002003F066F98C20C9
:101BC00003F063F9002003F060F9AC2003F05DF945
:101BD000002003F05AF9DC2003F057F9002003F04D
:101BE00054F9702003F051F9002003F04EF99020D1
:101BF00003F04BF9002003F048F9EB2003F045F91E
:101C0000002003F042F9DC2003F03FF9002003F04C
:101C10003CF9B82003F045F9002003F036F9002024
:101C200003F033F9002003F030F9002003F02DF920
:101C3000002003F02AF9002003F027F9002003F028
:101C400024F9002003F021F9BA2003F02AF9242016
:101C500003F01BF9002003F018F9002003F015F938
:101C6000002003F012F9C12003F01BF9202003F03B
:101C70000CF9002003F009F9542003F006F90020C4
:101C800003F003F9FF2003F000F9002003F0FDF852
:101C9000C22003F006F90A2003F0F7F8002003F051
:101CA000F4F8042003F0F1F8002003F0EEF8C3206C
:101CB00003F0F7F83C2003F0E8F8002003F0E5F823
:101CC0003A2003F0E2F8002003F0DFF8392003F0B7
:101CD000DCF8002003F0D9F8372003F0D6F8002014
:101CE00003F0D3F83C2003F0D0F8002003F0CDF847
:101CF000362003F0CAF8002003F0C7F8322003F0C2
:101D0000C4F8002003F0C1F82F2003F0BEF8002033
:101D100003F0BBF82C2003F0B8F8002003F0B5F86E
:101D2000292003F0B2F8002003F0AFF8262003F0DA
:101D3000ACF8002003F0A9F8242003F0A6F8002056
:101D400003F0A3F8242003F0A0F8002003F09DF88E
:101D5000232003F09AF8002003F097F83C2003F0CA
:101D600094F8002003F091F8362003F08EF800205C
:101D700003F08BF8322003F088F8002003F085F898
:101D80002F2003F082F8002003F07FF82C2003F0CE
:101D90007CF8002003F079F8292003F076F8002081
:101DA00003F073F8262003F070F8002003F06DF8BC
:101DB000242003F06AF8002003F067F8242003F0E1
:101DC00064F8002003F061F8232003F05EF800209F
:101DD00003F05BF8C42003F064F8622003F055F8C8
:101DE000002003F052F8052003F04FF8002003F024
:101DF0004CF8842003F049F8002003F046F8F02066
:101E000003F043F8002003F040F8182003F03DF8F9
:101E1000002003F03AF8A42003F037F8002003F084
:101E200034F8182003F031F8002003F02EF8502089
:101E300003F02BF8002003F028F80C2003F025F81D
:101E4000002003F022F8172003F01FF8002003F011
:101E50001CF8952003F019F8002003F016F8F32081
:101E600003F013F8002003F010F8E62003F00DF85B
:101E7000002003F00AF8C52003F013F8322003F025
:101E800004F8002003F001F8442002F0FEFF0020D7
:101E900002F0FBFF652002F0F8FF002002F0F5FFE2
:101EA000762002F0F2FF002002F0EFFF882002F01F
:101EB000ECFF002002F0E9FFC62002F0F2FF202034
:101EC00002F0E3FF002002F0E0FF172002F0DDFF48
:101ED000002002F0DAFF012002F0D7FF002002F01C
:101EE000D4FFC72002F0DDFF002002F0CEFF00206B
:101EF00002F0CBFF002002F0C8FF002002F0C5FF77
:101F0000C82002F0CEFF002002F0BFFF002002F048
:101F1000BCFF002002F0B9FF002002F0B6FFC9208C
:101F200002F0BFFF002002F0B0FF002002F0ADFF82
:101F3000002002F0AAFF002002F0A7FF002002F01C
:101F4000A4FF002002F0A1FF002002F09EFF00206D
:101F500002F09BFF002002F098FF002002F095FFA6
:101F6000002002F092FF002002F08FFF002002F01C
:101F70008CFF002002F089FF002002F086FF002085
:101F800002F083FFE02002F08CFF162002F07DFFBC
:101F9000002002F07AFF1C2002F077FF002002F000
:101FA00074FF212002F071FF002002F06EFF362046
:101FB00002F06BFF002002F068FF462002F065FF90
:101FC000002002F062FF522002F05FFF002002F0CA
:101FD0005CFF642002F059FF002002F056FF7A20D7
:101FE00002F053FF002002F050FF8B2002F04DFF63
:101FF000002002F04AFF992002F047FF002002F083
:1020000044FFA82002F041FF002002F03EFFB9206B
:1020100002F03BFF002002F038FFC42002F035FF41
:10202000002002F032FFCA2002F02FFF002002F051
:102030002CFFD22002F029FF002002F026FFD92039
:1020400002F023FF002002F020FFE02002F01DFF3D
:10205000002002F01AFFF32002F017FF002002F028
:1020600014FFE12002F01DFF162002F00EFF0020F9
:1020700002F00BFF1C2002F008FF002002F005FF19
:10208000222002F002FF002002F0FFFE362002F0C4
:10209000FCFE002002F0F9FE452002F0F6FE0020D2
:1020A00002F0F3FE522002F0F0FE002002F0EDFEFE
:1020B000642002F0EAFE002002F0E7FE7A2002F03F
:1020C000E4FE002002F0E1FE8B2002F0DEFE0020A4
:1020D00002F0DBFE992002F0D8FE002002F0D5FECF
:1020E000A82002F0D2FE002002F0CFFEB92002F0BC
:1020F000CCFE002002F0C9FEC42002F0C6FE002083
:1021000002F0C3FECA2002F0C0FE002002F0BDFEB5
:10211000D22002F0BAFE002002F0B7FED82002F072
:10212000B4FE002002F0B1FEE02002F0AEFE00207E
:1021300002F0ABFEF32002F0A8FE002002F0A5FEA4
:10214000E22002F0AEFE052002F09FFE002002F029
:102150009CFE0B2002F099FE002002F096FE1B2050
:1021600002F093FE002002F090FE342002F08DFE7B
:10217000002002F08AFE442002F087FE002002F0D8
:1021800084FE4F2002F081FE002002F07EFE6120DE
:1021900002F07BFE002002F078FE792002F075FE4E
:1021A000002002F072FE882002F06FFE002002F094
:1021B0006CFE972002F069FE002002F066FEA62069
:1021C00002F063FE002002F060FEB72002F05DFE28
:1021D000002002F05AFEC22002F057FE002002F05A
:1021E00054FEC72002F051FE002002F04EFED12026
:1021F00002F04BFE002002F048FED62002F045FE21
:10220000002002F042FEDD2002F03FFE002002F03E
:102210003CFEF32002F039FE002002F036FEE320FF
:1022200002F03FFE052002F030FE002002F02DFEFD
:102230000A2002F02AFE002002F027FE1C2002F0F5
:1022400024FE002000E0FDE202F01FFE332002F039
:102250001CFE002002F019FE442002F016FE0020B1
:1022600002F013FE502002F010FE002002F00DFEDE
:10227000622002F00AFE002002F007FE782002F041
:1022800004FE002002F001FE882002F0FEFD002086
:1022900002F0FBFD972002F0F8FD002002F0F5FDB2
:1022A000A62002F0F2FD002002F0EFFDB72002F0C0
:1022B000ECFD002002F0E9FDC22002F0E6FD002066
:1022C00002F0E3FDC72002F0E0FD002002F0DDFD9A
:1022D000D12002F0DAFD002002F0D7FDD52002F077
:1022E000D4FD002002F0D1FDDD2002F0CEFD002063
:1022F00002F0CBFDF32002F0C8FD002002F0C5FD86
:10230000E42002F0CEFD012002F0BFFD002002F02B
:10231000BCFD012002F0B9FD002002F0B6FD022054
:1023200002F0B3FD002002F0B0FD2A2002F0ADFD66
:10233000002002F0AAFD3C2002F0A7FD002002F0E0
:10234000A4FD4B2002F0A1FD002002F09EFD5D20C7
:1023500002F09BFD002002F098FD742002F095FD34
:10236000002002F092FD842002F08FFD002002F098
:102370008CFD932002F089FD002002F086FDA22052
:1023800002F083FD002002F080FDB32002F07DFD0D
:10239000002002F07AFDBE2002F077FD002002F05E
:1023A00074FDC42002F071FD002002F06EFDCD200E
:1023B00002F06BFD002002F068FDD32002F065FD05
:1023C000002002F062FDDD2002F05FFD002002F03F
:1023D0005CFDF32002F059FD002002F056FDE520DF
:1023E00002F05FFD002002F050FD002002F04DFDE4
:1023F000002002F04AFD002002F047FD022002F01A
:1024000044FD002002F041FD292002F03EFD0020A5
:1024100002F03BFD3C2002F038FD002002F035FDCB
:102420004B2002F032FD002002F02FFD5D2002F073
:102430002CFD002002F029FD742002F026FD002072
:1024400002F023FD842002F020FD002002F01DFD9B
:10245000932002F01AFD002002F017FDA22002F0E6
:1024600014FD002002F011FDB32002F00EFD00204B
:1024700002F00BFDBE2002F008FD002002F005FD79
:10248000C42002F002FD002002F0FFFCCD2002F08B
:10249000FCFC002002F0F9FCD32002F0F6FC002046
:1024A00002F0F3FCDC2002F0F0FC002002F0EDFC76
:1024B000F32002F0EAFC002002F0E7FCE62002F044
:1024C000F0FC112002F0E1FC002002F0DEFC3420E0
:1024D00002F0DBFC002002F0D8FC562002F0D5FC14
:1024E000002002F0D2FC762002F0CFFC002002F0A7
:1024F000CCFC772002F0C9FC002002F0C6FC66206C
:1025000002F0C3FC002002F0C0FC882002F0BDFCF9
:10251000002002F0BAFC992002F0B7FC002002F083
:10252000B4FCBB2002F0B1FC002002F0AEFC99200C
:1025300002F0ABFC002002F0A8FC662002F0A5FC33
:10254000002002F0A2FC552002F09FFC002002F0C7
:102550009CFC552002F099FC002002F096FC4520DE
:1025600002F093FC002002F090FC432002F08DFC6E
:10257000002002F08AFC442002F087FC002002F0D8
:1025800084FCE72002F08DFC322002F07EFC00206B
:1025900002F07BFC552002F078FC002002F075FC74
:1025A000762002F072FC002002F06FFC662002F040
:1025B0006CFC002002F069FC672002F066FC002041
:1025C00002F063FC672002F060FC002002F05DFC7A
:1025D000872002F05AFC002002F057FC992002F0FC
:1025E00054FC002002F051FCBB2002F04EFC002005
:1025F00002F04BFC992002F048FC002002F045FC60
:10260000772002F042FC002002F03FFC442002F060
:102610003CFC002002F039FC562002F036FC002081
:1026200002F033FC232002F030FC002002F02DFCED
:10263000332002F02AFC002002F027FC452002F0A3
:1026400024FC002002F021FCE82002F02AFC0020FB
:1026500002F01BFC002002F018FC992002F015FC8F
:10266000002002F012FC872002F00FFC002002F094
:102670000CFC882002F009FC002002F006FC772008
:1026800002F003FC002002F000FC662002F0FDFBDB
:10269000002002F0FAFB882002F0F7FB002002F095
:1026A000F4FBAA2002F0F1FB002002F0EEFBBB20BD
:1026B00002F0EBFB002002F0E8FB992002F0E5FBC2
:1026C000002002F0E2FB662002F0DFFB002002F0B7
:1026D000DCFB552002F0D9FB002002F0D6FB552090
:1026E00002F0D3FB002002F0D0FB442002F0CDFB2F
:1026F000002002F0CAFB442002F0C7FB002002F0D9
:10270000C4FB552002F0C1FB002002F0BEFBE92013
:1027100002F0C7FBAA2002F0B8FB002002F0B5FBD4
:10272000002002F0B2FB002002F0AFFB002002F01C
:10273000B8FBAA2002F0A9FBCF2002F0B2FB0020D8
:1027400002F0A3FB002002F0A0FB002002F09DFBA2
:10275000002002F09AFB002002F097FB002002F01C
:1027600094FB002002F091FB002002F08EFB002081
:1027700002F08BFB002002F088FB002002F085FBBA
:10278000002002F082FB002002F07FFB002002F01C
:102790007CFB002002F079FB002002F076FB002099
:1027A00002F073FBF02002F07CFB002002F06DFBD6
:1027B000502002F06AFB002002F067FB002002F0CC
:1027C00064FB002002F061FBF32002F06AFB0020B2
:1027D00002F05BFBF92002F064FB062002F055FBDF
:1027E000102002F052FB292002F04FFB002002F0E3
:1027F0004CFB3A2002F055FB552002F046FB11201D
:1028000002F04FFB642002F09DFF292002F049FBFB
:10281000352002F046FB002002F037FB512002F089
:1028200040FBFF2002F031FB532002F03AFB2C204A
:1028300002F02BFB552002F034FB822002F025FB36
:102840002C20FCE3A0427DD14FF470435521184663
:1028500002F03EFB4FF20104AA21204602F038FBB1
:10286000651C5221284602F033FBA61C0821304685
:1028700002F02EFBE71C0121384602F029FB0D2156
:102880004FF4304002F024FB0D214BF2010002F026
:102890001FFB0D214BF2020002F01AFB4FF43648E9
:1028A0003421404602F014FB34214BF2016002F067
:1028B0000FFB34214BF2026002F00AFB4FF4314966
:1028C0000D21484602F004FB4BF2011A0D2150463F
:1028D00002F0FEFA0D214BF2021002F0F9FA342157
:1028E0004FF4374002F0F4FA34214BF2017002F059
:1028F000EFFA34214BF2027002F0EAFA00214FF4B1
:10290000324002F0E5FA00214BF2012002F0E0FA39
:1029100000214BF2022002F0DBFA24214FF4384070
:1029200002F0D6FA24214BF6010002F0D1FA24215C
:102930004BF6020002F0CCFA01214FF43F4002F0C6
:10294000C7FA00E0FEE30F214FF4334002F0C0FA73
:102950000F214BF2013002F0BBFA0F214BF2023093
:1029600002F0B6FA34214FF4394002F0B1FA3421C2
:102970004BF6011002F0ACFA34214BF6021002F0D3
:10298000A7FA08214FF4354002F0A2FA08214BF2D1
:10299000015002F09DFA08214BF2025002F098FA21
:1029A00003214FF4424002F093FA24214FF43A40BD
:1029B00002F08EFA24214BF6012002F089FA24213C
:1029C0004BF6022002F084FA00214FF43C4002F062
:1029D0007FFA78214BF6014002F07AFA00214BF69B
:1029E000024002F075FA00214FF43D4002F070FA07
:1029F00078214BF6015002F06BFA00214BF60250A1
:102A000002F066FA00214FF43E4002F061FA6421C0
:102A10004BF6016002F05CFA00214FF4514002F0E5
:102A200057FA33214DF2011002F052FA00214DF213
:102A3000021002F04DFA34214DF2031002F048FA70
:102A400000214DF2041002F043FA3A214DF2051034
:102A500002F03EFA00214DF2061002F039FA4A2146
:102A60004DF2071002F034FA00214DF2081002F086
:102A70002FFA5C214DF2091002F02AFA00214DF2E2
:102A80000A1002F025FA81214DF20B1002F020FA13
:102A900000214DF20C1002F01BFAA6214DF20D1090
:102AA00002F016FA00214DF20E1002F011FAE521A3
:102AB0004DF20F1002F00CFA01214DF2101002F04D
:102AC00007FA13214DF2111002F002FA01214DF222
:102AD000121002F0FDF954214DF2131002F0F8F932
:102AE00001214DF2141002F0F3F982214DF215107C
:102AF00002F0EEF901214DF2161002F0E9F9CA21B7
:102B00004DF2171002F0E4F902214DF2181002F014
:102B1000DFF900214DF2191002F0DAF902214DF22D
:102B20001A1002F0D5F901214DF21B1002F0D0F974
:102B300002214DF21C1002F0CBF934214DF21D1090
:102B400002F0C6F902214DF21E1002F0C1F9672110
:102B50004DF21F1002F0BCF902214DF2201002F0DC
:102B6000B7F984214DF2211002F0B2F902214DF2A1
:102B7000221002F0ADF9A4214DF2231002F0A8F9C1
:102B800002214DF2241002F0A3F9B7214DF22510D5
:102B900002F09EF902214DF2261002F099F9CF21A0
:102BA0004DF2271002F094F902214DF2281002F0A4
:102BB0008FF9DE214DF2291002F08AF902214DF23F
:102BC0002A1002F085F9F2214DF22B1002F080F963
:102BD00002214DF22C1002F07BF9FE214DF22D1056
:102BE00002F076F903214DF22E1002F071F9102156
:102BF0004DF22F1002F06CF903214DF2301002F06B
:102C000067F933214DF2311002F062F903214DF2E0
:102C1000321002F05DF96D214DF2331002F058F9D7
:102C200000214FF4524002F053F933214DF20120BC
:102C300002F04EF900214DF2022002F049F9342150
:102C40004DF2032002F044F900214DF2042002F07D
:102C50003FF93A214DF2052002F03AF900214DF2F8
:102C6000062002F035F94A214DF2072002F030F932
:102C700000214DF2082002F02BF95C214DF20920D1
:102C800002F026F900214DF20A2002F021F98121FB
:102C90004DF20B2002F01CF900214DF20C2002F045
:102CA00017F9A6214DF20D2002F012F900214DF284
:102CB0000E2002F00DF9E5214DF20F2002F008F987
:102CC00001214DF2102002F003F913214DF21120E1
:102CD00002F0FEF801214DF2122002F0F9F8542121
:102CE0004DF2132002F0F4F801214DF2142002F00D
:102CF000EFF882214DF2152002F0EAF801214DF2A1
:102D0000162002F0E5F8CA214DF2172002F0E0F893
:102D100002214DF2182002F0DBF800214DF21920BB
:102D200002F0D6F802214DF21A2002F0D1F801216A
:102D30004DF21B2002F0CCF802214DF21C2002F0D3
:102D4000C7F834214DF21D2002F0C2F802214DF2E5
:102D50001E2002F0BDF867214DF21F2002F0B8F8E6
:102D600002214DF2202002F0B3F884214DF22120FF
:102D700002F0AEF802214DF2222002F0A9F8A421BF
:102D80004DF2232002F0A4F802214DF2242002F09B
:102D90009FF8B7214DF2252002F09AF802214DF25A
:102DA000262002F095F8CF214DF2272002F090F86E
:102DB00002214DF2282002F08BF8DE214DF229206D
:102DC00002F086F802214DF22A2002F081F8F22169
:102DD0004DF22B2002F07CF802214DF22C2002F063
:102DE00077F8FE214DF22D2002F072F803214DF20A
:102DF0002E2002F06DF810214DF22F2002F068F81D
:102E000003214DF2302002F063F833214DF23120DE
:102E100002F05EF803214DF2322002F059F86D21E4
:102E20004DF2332002F054F800214FF4534002F0E9
:102E30004FF833214DF2013002F04AF800214DF2F3
:102E4000023002F045F834214DF2033002F040F830
:102E500000214DF2043002F03BF83A214DF20530EA
:102E600002F036F800214DF2063002F031F84A2126
:102E70004DF2073002F02CF800214DF2083002F03C
:102E800027F85C214DF2093002F022F800214DF2C2
:102E90000A3002F01DF881214DF20B3002F018F8D3
:102EA00000214DF20C3002F013F8A6214DF20D3046
:102EB00002F00EF800214DF20E3002F009F8E52183
:102EC0004DF20F3002F004F801214DF2103001F004
:102ED000FFFF13214DF2113001F0FAFF01214DF2F5
:102EE000123001F0F5FF54214DF2133001F0F0FFE4
:102EF00001214DF2143001F0EBFF82214DF215302B
:102F000001F0E6FF01214DF2163001F0E1FFCA2188
:102F10004DF2173001F0DCFF02214DF2183001F0C4
:102F2000D7FF00214DF2193001F0D2FF02214DF2FE
:102F30001A3001F0CDFF01214DF21B3001F0C8FF26
:102F400002214DF21C3001F0C3FF34214DF21D303F
:102F500001F0BEFF02214DF21E3001F0B9FF6721E2
:102F60004DF21F3001F0B4FF02214DF2203001F08C
:102F7000AFFF84214DF2213001F0AAFF02214DF272
:102F8000223001F0A5FFA4214DF2233001F0A0FF73
:102F900002214DF2243001F09BFFB7214DF2253084
:102FA00001F096FF02214DF2263001F091FFCF2172
:102FB0004DF2273001F08CFF02214DF2283001F054
:102FC00087FFDE214DF2293001F082FF02214DF210
:102FD0002A3001F07DFFF2214DF22B3001F078FF15
:102FE00002214DF22C3001F073FFFE214DF22D3005
:102FF00001F06EFF03214DF22E3001F069FF102128
:103000004DF22F3001F064FF03214DF2303001F01A
:103010005FFF33214DF2313001F05AFF03214DF2B1
:10302000323001F055FF6D214DF2333001F050FF89
:1030300000214FF4544001F04BFF332100E080E3C6
:103040004DF2014001F044FF00214DF2024001F039
:103050003FFF34214DF2034001F03AFF00214DF2D1
:10306000044001F035FF3A214DF2054001F030FFF8
:1030700000214DF2064001F02BFF4A214DF207409E
:1030800001F026FF00214DF2084001F021FF5C21F4
:103090004DF2094001F01CFF00214DF20A4001F001
:1030A00017FF81214DF20B4001F012FF00214DF27C
:1030B0000C4001F00DFFA6214DF20D4001F008FF7C
:1030C00000214DF20E4001F003FFE5214DF20F40CB
:1030D00001F0FEFE01214DF2104001F0F9FE132136
:1030E0004DF2114001F0F4FE01214DF2124001F0C9
:1030F000EFFE54214DF2134001F0EAFE01214DF2A2
:10310000144001F0E5FE82214DF2154001F0E0FE91
:1031100001214DF2164001F0DBFECA214DF21740AD
:1031200001F0D6FE02214DF2184001F0D1FE00213F
:103130004DF2194001F0CCFE02214DF21A4001F08F
:10314000C7FE00E000E301214DF21B4001F0C0FE8C
:1031500002214DF21C4001F0BBFE34214DF21D4016
:1031600001F0B6FE02214DF21E4001F0B1FE6721D2
:103170004DF21F4001F0ACFE02214DF2204001F063
:10318000A7FE84214DF2214001F0A2FE02214DF262
:10319000224001F09DFEA4214DF2234001F098FE53
:1031A00002214DF2244001F093FEB7214DF225405B
:1031B00001F08EFE02214DF2264001F089FECF2162
:1031C0004DF2274001F084FE02214DF2284001F02B
:1031D0007FFEDE214DF2294001F07AFE02214DF200
:1031E0002A4001F075FEF2214DF22B4001F070FEF5
:1031F00002214DF22C4001F06BFEFE214DF22D40DC
:1032000001F066FE03214DF22E4001F061FE102117
:103210004DF22F4001F05CFE03214DF2304001F0F1
:1032200057FE33214DF2314001F052FE03214DF2A1
:10323000324001F04DFE6D214DF2334001F048FE69
:1032400000214FF4554001F043FE33214DF201506F
:1032500001F03EFE00214DF2025001F039FE342112
:103260004DF2035001F034FE00214DF2045001F004
:103270002FFE3A214DF2055001F02AFE00214DF2B9
:10328000065001F025FE4A214DF2075001F020FEC4
:1032900000214DF2085001F01BFE5C214DF2095057
:1032A00001F016FE00214DF20A5001F011FE8121BD
:1032B0004DF20B5001F00CFE00214DF20C5001F0CC
:1032C00007FEA6214DF20D5001F002FE00214DF245
:1032D0000E5001F0FDFDE5214DF20F5001F0F8FD1B
:1032E00001214DF2105001F0F3FD13214DF2115068
:1032F00001F0EEFD01214DF2125001F0E9FD5421E3
:103300004DF2135001F0E4FD01214DF2145001F093
:10331000DFFD82214DF2155001F0DAFD01214DF261
:10332000165001F0D5FDCA214DF2175001F0D0FD25
:1033300002214DF2185001F0CBFD00214DF2195041
:1033400001F0C6FD02214DF21A5001F0C1FD01212C
:103350004DF21B5001F0BCFD02214DF21C5001F05A
:10336000B7FD34214DF21D5001F0B2FD02214DF2A6
:103370001E5001F0ADFD67214DF21F5001F0A8FD78
:1033800002214DF2205001F0A3FD84214DF2215085
:1033900001F09EFD02214DF2225001F099FDA42181
:1033A0004DF2235001F094FD02214DF2245001F022
:1033B0008FFDB7214DF2255001F08AFD02214DF21B
:1033C000265001F085FDCF214DF2275001F080FD00
:1033D00002214DF2285001F07BFDDE214DF22950F3
:1033E00001F076FD02214DF22A5001F071FDF2212B
:1033F0004DF22B5001F06CFD02214DF22C5001F0EA
:1034000067FDFE214DF22D5001F062FD03214DF2CA
:103410002E5001F05DFD10214DF22F5001F058FDAE
:1034200003214DF2305001F053FD33214DF2315064
:1034300001F04EFD03214DF2325001F049FD6D21A6
:103440004DF2335001F044FD00214FF4564001F09D
:103450003FFD33214DF2016001F03AFD00214DF2B4
:10346000026001F035FD34214DF2036001F030FDC2
:1034700000214DF2046001F02BFD3A214DF2056070
:1034800001F026FD00214DF2066001F021FD4A21E8
:103490004DF2076001F01CFD00214DF2086001F0C3
:1034A00017FD5C214DF2096001F012FD00214DF283
:1034B0000A6001F00DFD81214DF20B6001F008FD65
:1034C00000214DF20C6001F003FDA6214DF20D60CC
:1034D00001F0FEFC00214DF20E6001F0F9FCE52147
:1034E0004DF20F6001F0F4FC01214DF2106001F08B
:1034F000EFFC13214DF2116001F0EAFC01214DF2C5
:10350000126001F0E5FC54214DF2136001F0E0FC83
:1035100001214DF2146001F0DBFC82214DF21560B7
:1035200001F0D6FC01214DF2166001F0D1FCCA2158
:103530004DF2176001F0CCFC02214DF2186001F051
:10354000C7FC00214DF2196001F0C2FC02214DF2CE
:103550001A6001F0BDFC01214DF21B6001F0B8FCC6
:1035600002214DF21C6001F0B3FC34214DF21D60CC
:1035700001F0AEFC02214DF21E6001F0A9FC6721B2
:103580004DF21F6001F0A4FC02214DF2206001F019
:103590009FFC84214DF2216001F09AFC02214DF242
:1035A000226001F095FCA4214DF2236001F090FC13
:1035B00002214DF2246001F08BFCB7214DF2256011
:1035C00001F086FC02214DF2266001F081FCCF2142
:1035D0004DF2276001F07CFC02214DF2286001F0E1
:1035E00077FCDE214DF2296001F072FC02214DF2E0
:1035F0002A6001F06DFCF2214DF22B6001F068FCB5
:1036000002214DF22C6001F063FCFE214DF22D6091
:1036100001F05EFC03214DF22E6001F059FC1021F7
:103620004DF22F6001F054FC03214DF2306001F0A7
:103630004FFC33214DF2316001F04AFC03214DF281
:10364000326001F045FC6D214DF2336001F040FC29
:103650005521184601F03CFCAA21204601F038FC17
:103660005221284601F034FC0821304601F030FC9C
:103670000021384601F02CFCCC21484601F028FC02
:103680000021504601F024FC0521404601F020FCB9
:1036900070214FF4374001F01BFC70214BF2017098
:1036A00001F016FC01214FF4384001F011FC032118
:1036B0004BF6010001F00CFC03214BF6020001F077
:1036C00007FC03214BF6030001F002FC02214FF43A
:1036D0003C4001F0FDFB00214BF6014001F0F8FBFE
:1036E00000214BF6024001F0F3FBD0214FF449409A
:1036F00001F0EEFB02214CF6011001F0E9FB502134
:103700004CF6021001F0E4FB50214CF6031001F0DE
:10371000DFFB50214CF6041001F0DAFB00214FF4DE
:10372000545001F0D5FB55214FF4685001F0D0FB07
:103730004FF4885001F0B5FB782002F01FF84FF4E9
:10374000245001F0AEFBFDE0A0F513414FF480746E
:103750004FF4E06940F2022A4FF4274625397CD025
:10376000A0F5134140F20775283977D0A0F5134131
:103770004FF488774FF41C56203970D0A0F51341D0
:1037800031396DD0A0F5A84108396AD0A0F5A8510B
:103790004FF44077053965D0A0F5354105397CD027
:1037A000A0F54541053979D0A0F58A41313976D067
:1037B000A0F58A41353973D04045C4D1E22001F0EB
:1037C00070FB1D2001F061FB022001F05EFB042074
:1037D00001F05BFB642001F0D1FFE02001F061FB10
:1037E000012001F052FB0A2001F0ACFFE02001F0C3
:1037F00058FB032001F049FB0C2001F0A3FF01203E
:1038000001F04FFB0A2001F09DFFE62001F049FB8B
:103810002F2001F03AFBFF2001F037FBFF2001F0E1
:1038200034FBB02001F03DFB202001F02EFB0020F6
:1038300001F02BFB032001F028FB40F21F3001F0C8
:1038400024FB012001F021FB40F2DF1001F01DFB01
:10385000002001F01AFBB42005E080E04BE103E218
:10386000AAE27FE3FEE301F01CFB042001F00DFB64
:1038700040F21F4001F009FB002001F006FB2E2062
:1038800001F003FB002001F000FB002001F0FDFA35
:10389000002001F0FAFA002003E0FDE3FDE3FDE380
:1038A000FDE301F0F2FAB62001F0FBFA022001F08C
:1038B000ECFA4FF4037001F0E8FA002001F0E5FAA9
:1038C000172001F0E2FA152001F0DFFA002001F0E4
:1038D000DCFA002001F0D9FAF02001F0E2FA03202E
:1038E00001F0D3FA292001F0DCFAD02001F0D9FA56
:1038F000002001F0CAFABE2001F0D3FA052001F041
:10390000C4FAFE2001F0C1FA012001F0BEFA002045
:1039100001F0BBFA002001F0B8FA002001F0B5FA7E
:10392000B82001F0BEFA032001F0AFFA012001F047
:10393000ACFABA2001F0B5FA012001F0A6FA642031
:1039400000F0FEFF0020FDF72BFBFF490120C1F82E
:10395000BC025846FDF7EEFA21B0BDE8F08F47F6FD
:10396000F001E52001F0B4FA2146012001F0B0FA9F
:103970004946022001F0ACFA41F23001032001F087
:10398000A7FA0021042001F0A3FA5146082001F013
:103990009FFA0021092001F09BFA00210A2001F082
:1039A00097FA00210C2001F093FA00210D2001F07C
:1039B0008FFA00210F2001F08BFA0021102001F076
:1039C00087FA0721112001F083FA0021122001F06B
:1039D0007FFA0021132001F07BFA0021072001F07B
:1039E00077FA41F29061102001F072FA40F227213B
:1039F000112001F06DFA9D21122001F069FA4FF4B7
:103A0000C851132001F064FA2521292001F060FA41
:103A10000D212B2001F05CFA0721302001F058FA2B
:103A200040F20331312001F053FA0321322001F03A
:103A30004FFA40F20621352001F04AFA08213620DB
:103A400001F046FA40F20641372001F041FA4FF406
:103A50004171382001F03CFA0721392001F038FA91
:103A600040F202613C2001F033FA08213D2001F0D0
:103A70002FFA0021502001F02BFAEF21512001F004
:103A800027FA0021522001F023FA40F23F1153207F
:103A900001F01EFA3146602001F01AFA012161207E
:103AA00001F016FA00216A2001F012FA00218020AC
:103AB00001F00EFA0021812001F00AFA0021822093
:103AC00001F006FA0021832001F002FA002184208F
:103AD00001F0FEF90021852001F0FAF91021902073
:103AE00001F0F6F94FF4C061922001F0F1F940F2D3
:103AF00033110720FEE341F28F01EC2001F0E8F9D9
:103B000041F23421EF2001F0E3F92146012001F0D8
:103B1000DFF94946022001F0DBF941F230010320D0
:103B200001F0D6F90021042001F0D2F95146082015
:103B300001F0CEF90021092001F0CAF900210A2084
:103B400001F0C6F901210C2001F0C2F900210D207D
:103B500001F0BEF900210F2001F0BAF90021102078
:103B600001F0B6F90721112001F0B2F9002112206D
:103B700001F0AEF90021132001F0AAF9012107207C
:103B800001F0A6F9322001F0DDFD41F29041102054
:103B900001F09EF940F22721112001F099F932201D
:103BA00001F0D0FD8A21122001F092F9322001F0BB
:103BB000C9FD4FF4D051132001F08AF906212920C4
:103BC00001F086F90D212B2001F082F9322001F05D
:103BD000B9FD0021202001F07BF90021212001F016
:103BE00077F9322001F0AEFD0021302001F070F9AC
:103BF00040F20461312001F06BF940F205313220CE
:103C000001F066F90021352001F062F940F6094122
:103C1000362001F05DF94FF40171372001F058F9B9
:103C200040F20131382001F053F92946392001F0E2
:103C30004FF900213C2001F04BF940F60A213D20CC
:103C400001F046F9322001F07DFD0021502001F005
:103C50003FF9EF21512001F03BF90021522001F002
:103C600037F940F23F114EE10021084601F030F9EA
:103C70002146012001F02CF94946022001F028F9E3
:103C800041F23001032001F023F90021042001F06A
:103C90001FF95146082001F01BF90021092001F00D
:103CA00017F900210A2001F013F901210C2001F07D
:103CB0000FF900210D2001F00BF900210F2001F078
:103CC00007F9322001F03EFD40F20111072001F01A
:103CD000FFF8322001F036FD4FF48651102001F03C
:103CE000F7F80721112001F0F3F83946122001F00E
:103CF000EFF84FF43061132001F0EAF80021292099
:103D000001F0E6F844F210012B2001F0E1F8002167
:103D1000502001F0DDF8EF21512001F0D9F8002109
:103D2000522001F0D5F840F23F11532001F0D0F8B5
:103D30003146602001F0CCF80121612001F0C8F883
:103D400000216A2002E000000080404201F0C0F83B
:103D50000021802001F0BCF80021812001F0B8F89A
:103D60000021822001F0B4F80021832001F0B0F896
:103D70000021842001F0ACF80021852001F0A8F892
:103D80001021902001F0A4F80021922001F0A0F869
:103D90000121932001F09CF83946952001F098F814
:103DA0000021972001F094F80021982001F090F86C
:103DB00040F27311072081E341F21401E72001F082
:103DC00087F82146012001F083F84FF400710220AA
:103DD00001F07EF841F23801032001F079F85146F4
:103DE000082001F075F80021092001F071F8002188
:103DF0000A2001F06DF800210C2001F069F8002183
:103E00000D2001F065F800210F2001F061F800217C
:103E1000102001F05DF80721112001F059F8002170
:103E2000122001F055F80021132001F051F8C820AC
:103E300001F088FC41F29061102001F049F840F255
:103E40002721112001F044F8322001F07BFC0C21E5
:103E5000122001F03DF8322001F074FC4FF40061B3
:103E6000132001F035F81121292001F031F80B2140
:103E70002B2001F02DF8322001F064FC00212020DD
:103E800001F026F840F23F131946212001F020F8F6
:103E90000021302001F01CF84FF4837421463120BA
:103EA00001F016F80021322001F012F84FF40171F0
:103EB000352001F00DF841F20A61362001F008F8D2
:103EC0002946372001F004F82146382001F000F897
:103ED0002946392000F0FCFF40F202413C2000F06E
:103EE000F7FF40F60F413D2000F0F2FF0021502087
:103EF00000F0EEFFEF21512000F0EAFF00215220F8
:103F000000F0E6FF1946532000F0E2FF3146602042
:103F100000F0DEFF0121612000F0DAFF00216A20BD
:103F200000F0D6FF0021802000F0D2FF0021812088
:103F300000F0CEFF0021822000F0CAFF0021832084
:103F400000F0C6FF0021842000F0C2FF0021852080
:103F500000F0BEFF1021902000F0BAFF4FF4C061C6
:103F60009220FDE32146012000F0B2FF49460220E5
:103F700000F0AEFF41F23001032000F0A9FF002164
:103F8000042000F0A5FF40F20721082000F0A0FF68
:103F90000021092000F09CFF00210A2000F098FF7A
:103FA00000210C2000F094FF00210D2000F090FF74
:103FB00000210F2000F08CFF142001F0C3FB41F220
:103FC000B061102000F084FF0121112000F080FF7B
:103FD0000121172000F07CFF4FF49C71122000F0AB
:103FE00077FF4FF40061132000F072FF09212920B0
:103FF00000F06EFF09212A2000F06AFF0021A420B2
:1040000000F066FF0021502000F062FFEF215120F8
:1040100000F05EFF0021522000F05AFF40F23F11F5
:10402000532000F055FF3146602000F051FF012180
:10403000612000F04DFF00216A2000F049FF0021BF
:10404000802000F045FF0021812000F041FF002189
:10405000822000F03DFF0021832000F039FF002185
:10406000842000E021E000F033FF0021852000F0F3
:104070002FFF1321902000F02BFF0021922000F051
:1040800027FF0321932000F023FF3946952000F0FD
:104090001FFF40F2731103E014E110E2D7E28CE35A
:1040A000072000F015FF322008E10021072000F072
:1040B0000FFF322001F046FB4FF48E71122000F00A
:1040C00007FF0121A42000F003FF0F21082000F0CA
:1040D000FFFE08210A2000F0FBFE08210D2000F061
:1040E000F7FE2B462946302000F0F2FE0721312052
:1040F00000F0EEFE40F20361322000F0E9FE4D4692
:104100004946332000F0E4FE5146342000F0E0FE42
:104110000221352000F0DCFE41F60F71362000F060
:10412000D7FE1946372000F0D3FE0021382000F0DA
:10413000CFFE0021392000F0CBFE19463A2000F0D6
:10414000C7FE00213B2000F0C3FE07213C2000F009
:10415000BFFE00213D2000F0BBFE322001F0F2FA4C
:104160000121072000F0B4FE0121172000F0B0FE6D
:10417000322001F0E7FA4FF4BD51102000F0A8FE04
:1041800040F21721112000F0A3FE4FF48F7112208E
:1041900000F09EFE4FF47061132000F099FE0021A4
:1041A0002A2000F095FE0A21292000F091FE4FF40C
:1041B0009F71122000F08CFE0021502000F088FE3C
:1041C000EF21512000F084FE0021522000F080FEFB
:1041D00040F23F11532000F07BFE3146602000F09A
:1041E00077FE0121612000F073FE00216A2000F0BB
:1041F0006FFE0021802000F06BFE0021812000F086
:1042000067FE0021822000F063FE0021832000F081
:104210005FFE0021842000F05BFE0021852000F07D
:1042200057FE1321902000F053FE3946922000F0F3
:104230004FFE0521932000F04BFE0021952000F059
:1042400047FE0021972000F043FE0021982000F057
:104250003FFE2146012000F03BFE2946022000F0EF
:1042600037FE41F23801032000F032FE0021042025
:1042700000F02EFE00210C2000F02AFE00210F206D
:1042800000F026FE0021202000F022FE0021212047
:1042900000F01EFE2121072000F01AFE142001F07C
:1042A00051FA6121072000F013FE142001F04AFAB0
:1042B00040F27311072000F00BFE142001F042FAC7
:1042C000FFF740BB0021084600F002FE002108462F
:1042D00000F0FEFD0021084600F0FAFD002108462E
:1042E00000F0F6FD0121A42000F0F2FD142001F001
:1042F00029FA00E0DEE03146602000F0E9FD554695
:104300005146082000F0E4FD4FF40571302000F024
:10431000DFFD43F21571312000F0DAFD40F2046157
:10432000322000F0D5FD40F61661332000F0D0FDBC
:1043300042F21121342000F0CBFD4FF4A85135207A
:1043400000F0C6FD48F20751362000F0C1FD41F2F1
:104350000741372000F0BCFD41F20341382000F056
:10436000B7FD2021392000F0B3FD1A21902000F084
:10437000AFFD0021102000F0ABFD0721112000F05F
:10438000A7FD0021122000F0A3FD0021132000F062
:104390009FFD142001F0D6F94FF4E661102000F0E3
:1043A00097FD40F23711112000F092FD142001F02A
:1043B000C9F94FF4DC71122000F08AFD142001F0DD
:1043C000C1F94FF47061132000F082FD80212A2092
:1043D00000F07EFD4821292000F07AFD142001F034
:1043E000B1F92146012000F073FD4946022000F09A
:1043F0006FFD41F23801032000F06AFD29460820D4
:1044000000F066FD00210A2000F062FD00210C2072
:1044100000F05EFD00210D2000F05AFD30210E203D
:1044200000F056FD0021502000F052FDEF215120F8
:1044300000F04EFD0021522000F04AFD40F23F11F5
:10444000532000F045FD3146602000F041FD012180
:10445000612000F03DFD00216A2000F039FD1121AE
:10446000902000F035FD4FF4C061922000F030FD47
:1044700040F20241932000F02BFD0221942000F035
:1044800027FD142001F05EF90121072000F020FD36
:10449000142001F057F96121072000F019FD40F2C6
:1044A0007311072000F014FD0021202000F010FD02
:1044B0000021212000F00CFD222100207AE10021C2
:1044C000084600F005FD0021084600F001FD14201B
:1044D00001F038F90021084600F0FAFC00210846F6
:1044E00000F0F6FC0021084600F0F2FC002108462E
:1044F00000F0EEFC0121A42000F0EAFC142001F001
:1045000021F93146602000F0E3FC40F60601082066
:1045100000F0DEFC40F203731946302000F0D8FCB6
:104520000121312000F0D4FC0421322000F0D0FC25
:104530004FF48171332000F0CBFC3946342000F079
:10454000C7FC40F20311352000F0C2FC1F213620C9
:1045500000F0BEFC1946372000F0BAFC01213820DB
:1045600000F0B6FC0421392000F0B2FC15219020A7
:1045700000F0AEFC4FF48261102000F0A9FC40F284
:104580004721112000F0A4FC4FF4DE71122000F04E
:104590009FFC4FF46061132000F09AFC782001F03A
:1045A000D1F82146012000F093FC4FF40071022065
:1045B00000F08EFC41F23001032000F089FC08215C
:1045C0000A2000F085FC00210C2000F081FC202155
:1045D0000E2000F07DFC00210F2000F079FC00216E
:1045E000202000F075FC0021212000F071FC3D210D
:1045F0002A2000F06DFC142001F0A4F82D212920C0
:1046000000F066FC0021502000F062FC4DF2EF014A
:10461000512000F05DFC0021522000F059FC40F2D6
:104620003F11532000F054FC0021612000F050FCA9
:1046300000216A2000F04CFC3946922000F048FC32
:104640000521932000F044FC2146FFF7B3BB012174
:10465000002000F03DFC0A2001F074F841F22861CE
:10466000102000F035FC0E21122000F031FC40F645
:104670003921132000F02CFC0A2001F063F84021BE
:10468000112000F025FC5021152000F021FC0A200B
:1046900001F058F81E21122000F01AFC0A2001F047
:1046A00051F84FF4B151102000F012FC42F63921BC
:1046B000132000F00DFC0A2001F044F821460120EF
:1046C00000F006FC3946022000F002FC41F23801FD
:1046D000032000F0FDFB5146082000F0F9FB082103
:1046E0000A2000F0F5FB0021302000F0F1FB40F241
:1046F0000241312000F0ECFB4FF48371322000F0D6
:10470000E7FB40F20351332000F0E2FB4FF48271EB
:10471000342000F0DDFB40F20131352000F0D8FB01
:104720002946362000F0D4FB40F20531372000F056
:10473000CFFB4FF40271382000F0CAFB40F60B713A
:10474000392000F0C5FB0221412000F0C1FB3146B9
:10475000602000F0BDFB0121612000F0B9FB00E00A
:10476000CDE04FF40471902000F0B2FB4FF485715E
:10477000922000F0ADFB0421932000F0A9FB21461C
:10478000A02000F0A5FB0121072000F0A1FB2121C2
:10479000072000F09DFB2321072000F099FB332127
:1047A000072000F095FB40F23311072000F090FB4A
:1047B0000021A02000F08CFB82E53021152000F0C4
:1047C00087FB10219A2000F083FB2021112000F0AC
:1047D0007FFB43F22841102000F07AFB02211220D7
:1047E00000F076FB41F23801132000F071FB282025
:1047F00000F0A8FF1221084600F06AFB282000F014
:10480000A1FF43F22041102000F062FB43F2380187
:10481000132000F05DFB462000F094FF00213020C3
:1048200000F056FB40F20241312000F051FB40F213
:104830000731322000F04CFB4FF44171332000F07F
:1048400047FB0421342000F043FB40F201413520B6
:1048500000F03EFB2946362000F03AFB40F20531DD
:10486000372000F035FB4FF4C2631946382000F0C2
:104870002FFB1946392000F02BFB2146012000F0C8
:1048800027FB3946022000F023FB41F230010320D0
:1048900000F01EFB40F60801082000F019FB08217B
:1048A0000A2000F015FB3146602000F011FB0121C9
:1048B000612000F00DFB4FF49F71902000F008FB89
:1048C0002146922000F004FB2146932000F000FBDB
:1048D0004FF44051A02000F0FBFA1021A32000F07B
:1048E000F7FA0121072000F0F3FA2121072000F058
:1048F000EFFA2321072000F0EBFA3321072000F024
:10490000E7FA40F23311A0E60346012000E05843E5
:10491000491EC9B2FBD2704708B54FF0D840B0F875
:104920008000ADF80000BDF8000008BD10B500F033
:10493000B8FA052000F022FFBDE81040FFF7ECBFF9
:1049400010B50246BE2000F0ACFA052000F09DFA3A
:10495000104603F01AFA9FED0C1B53EC112B03F0D9
:1049600027FA03F0E5F980B200F08FFA012000F099
:104970008CFAFF2000F089FA002000F086FABDE8EA
:104980001040002000F081BA6666666666660440E4
:10499000F0B57F4D00232946AA79898846F6040799
:1049A00041F66314012A01D02AB11DE0B9421BD09F
:1049B000A14202D118E0A14216D1082814D2DFE8A2
:1049C00000F00406080A0C0E101206200CE0072066
:1049D0000AE0042008E0052006E0012004E00020B1
:1049E00002E0032000E00220A1F5134C45F2103252
:1049F00045F21056BCF1410C07D0B94205D09142A6
:104A000003D0B14201D0A1427BD1082812D2DFE805
:104A100000F0110406080A0C0E1080230AE040235F
:104A200008E0C02306E0202304E0602302E0A02386
:104A300000E0E023B14202D14FF4585000E03620AC
:104A4000914205D0B14203D0A14201D043F0080306
:104A5000B94201D143F00203194600F039FAAA889D
:104A6000A2420AD098062888698802D5884202D3D3
:104A700003E0884201D9298068806889B24241D127
:104A800000F00FFA002000F000FA6889401C80B2A4
:104A900000F007FA002000F0F8F96889801C80B265
:104AA00000F0FFF92888401EC0F30F2000F0EDF958
:104AB0006889C01C80B200F0F4F92878401EC0B2AA
:104AC00000F0E3F9A88900F0ECF9002000F0DDF92E
:104AD000A889401C80B200F0E4F9002000F0D5F96C
:104AE000A889801C80B200F0DCF96888401EC0F301
:104AF0000F2000F0CAF9A889C01C80B200F0D1F9DB
:104B000022E028E000F0CDF9002000F0BEF90020FE
:104B100000F0BBF92888401EC0F30F2000F0B5F963
:104B20002878401EC0B200F0B0F9A88900F0B9F9A9
:104B3000002000F0AAF9002000F0A7F96888401EC4
:104B4000C0F30F2000F0A1F9A878BDE8F040401EA6
:104B5000C0B200F09AB9082812D2DFE800F00406CB
:104B600008110A0C0E1030230AE0102308E020235D
:104B700006E0382304E0282302E0182300E008239D
:104B8000BDE8F040032043F4805100F0A1B90000DB
:104B9000E40000202DE9F043DFF844810C46024692
:104BA000050AB8F804104046A1F5134340894FEABE
:104BB0001429413B17D0A1F5A643103B13D046461C
:104BC000A1F5D047B3793688B61A761E043F0ED0C9
:104BD000A1F5C857633F1ED0A1F5AA47103F57D093
:104BE000012B72D072E000F05CF9284605E0012B41
:104BF00000D1B2B200F055F9100A00F046F9D0B277
:104C000000F043F9B8F80C0000F04BF9484600F00A
:104C10003CF9E0B22AE06BB300F043F9284600F01B
:104C200034F9D0B200F031F9B8F80000401EC0F3FA
:104C30000F2000F02AF998F80000401EC0B200F0E2
:104C400024F9B8F80C0000F02CF9484600F01DF9E2
:104C5000E0B200F01AF9B8F80200401EC0F30F20CD
:104C600000F013F998F80200401EC0B2BDE8F0430E
:104C700000F00BB9B2B200F014F9002000F005F911
:104C8000002000F002F9100A00F0FFF8D0B2D6E7D9
:104C900000F007F9284600F0F8F8B8F80A00401CC0
:104CA00080B200F0FEF8D0B200F0EFF8B8F80C00D7
:104CB00000F0F7F8484600F0E8F8B8F80C00401C9F
:104CC00080B200F0EEF8A4E7FFE7B2B2114600F0C0
:104CD000FFF8B8F80C002146BDE8F04300F0F8B842
:104CE000E40000202DE9F84F82461F460C468B4613
:104CF000580700D0012000EBD700790810FB01F025
:104D0000203AC0B202F0FF090026009041E00C2FCB
:104D100010D0102F12D0182F3ED1204909EBC90016
:104D200001EB80004FF00008855D28060AD51C487D
:104D300002880BE009EB49001A49F1E71A4901EB37
:104D40000910EFE70A9828B91548428821465046CD
:104D5000FCF7C0F96806050E1448641CA4B240882C
:104D6000A04219D9A4EB0B00B84209D10AF1010005
:104D70001FFA80FA0D485C46018851450CD906E0BF
:104D800008F1010000F0FF08B8F1080FCDD3761C40
:104D9000F6B200988642BAD3BDE8F88F248A00089C
:104DA00040000020C07F000834840008E400002098
:104DB0002DE9F84F044600F0FF0810190D46DDE913
:104DC0000A761FFA80FA58191FFA80F94FF0000B83
:104DD00011E0544502D3E819444685B24D450FD23F
:104DE0003B4629462046CDF800B0FFF77BFF04EB99
:104DF000570084B2761C3278A2F120005E28E8D9F0
:104E0000BDE8F88F2DE9FF4F81B08046DDF83CA06A
:104E10000E984FF000091F4693464C460AF00105D4
:104E200046082BE0381B401EC1B20A20FFF76CFD7C
:104E3000BBFBF0F00A21B0FBF1F201FB1200B9F16B
:104E4000000F05D1791E8C4202DA48B14FF00109FA
:104E50003030C2B206FB048080B200950E9B08E0A1
:104E60005FEA0A6006FB04800E9B80B200950AD5BB
:104E700030220299FFF736FF641CE4B2BC42D1D362
:104E800005B0BDE8F08F2022F3E701B5BDF80000C2
:104E9000ADF80000BDF800004FF0D841A1F8800047
:104EA00008BD01B5BDF80000ADF80000BDF8000078
:104EB0004FF0D841A1F87E0008BD000003484FF034
:104EC000D8410089A1F87E0070470000E40000206E
:104ED0004FF0D84222F87E0F518070471CB5002653
:104EE0001024124D80274FF4C878CDE900460423E2
:104EF0002A8882218620FFF785FFCDE9004601231D
:104F00002A8896218620FFF77DFFCDE9004795EDA1
:104F10000A0A96210323BCEEC00A084610EE102AA6
:104F2000FFF770FF404601F055FCDEE7000000206F
:104F30007CB50121202000F059F801208DF80400F3
:104F400000228DF8062003218DF80510074D4FF43F
:104F5000C0648DF80700009469462846FBF716FFE9
:104F600021462846FBF75EFF7CBD0000001402408E
:104F7000FEE7704730B50F23C27801780125FAB1FA
:104F8000144A126801F1E02102F4E062C2F5E06225
:104F9000C2F30722C2F10404D3404278A2408478CD
:104FA0001C401443220181F80024007800F01F0106
:104FB0008D404009800000F1E020C0F8005130BD74
:104FC00001F01F0085404809800000F1E020C0F892
:104FD000805130BD0CED00E00249084302490860F1
:104FE000704700000000FA050CED00E0044A0029BB
:104FF000116801D0014300E0814311607047000057
:1050000030380240044A0029116801D0014300E011
:10501000814311607047000038380240044A00297B
:10502000116801D0014300E0814311607047000026
:1050300040380240044A0029116801D0014300E0D1
:10504000814311607047000044380240044A00293F
:10505000116801D0014300E08143116070470000F6
:105060002438024070B5204B1968204C11F00C0117
:1050700004D06610042903D0082903D004601BE083
:10508000066019E0184A121F1168C1F380551168B3
:1050900001F03F0115B1B6FBF1F101E0B4FBF1F114
:1050A00014681268C4F388146143C2F30142521CAD
:1050B0005200B1FBF2F1016019680F2202EA1111EE
:1050C0000B4A545C0168E14041601C68072505EA11
:1050D0009424145D21FA04F484601B6805EA5333B8
:1050E000D25CD140C16070BD083802400024F40099
:1050F000580000200CB50022274900920192086850
:1051000040F4803008604FF4A043086800F4003099
:1051100001900098401C0090019810B900989842A6
:10512000F3D10868800334D5012001901A4840303B
:10513000026842F0805202601848026842F440421D
:1051400002601548083002680260026842F40042BA
:105150000260026842F4A0520260031F104A1A6003
:105160000A6842F080720A600A689201FCD50D4913
:1051700040F205720A60016821F0030101600168D4
:1051800041F0020101600168C1F381010229FAD1F5
:105190000CBD01920CBD00000038024000700040C0
:1051A00008544007003C02404FF0E0210428086901
:1051B00003D020F004000861704740F00400FAE7D3
:1051C00010B502F0C7FA012803D0BDE8104001F085
:1051D00051BF10BD124810B5016841F47001016063
:1051E0001048016841F0010101600E4A00210832B7
:1051F000116002680C4B1A400260031D0B4A1A60D2
:10520000026822F48022026006480C300160FFF739
:1052100071FF03494FF000608039086010BD000045
:1052200088ED00E000380240FFFFF6FE1030002459
:1052300010B5084C0121204600F0B5F8012803D133
:1052400005490A68521C0A602046BDE81040012149
:1052500000F09CB800040040440000207FB50D46DB
:10526000044601210220FFF7D9FE0194ADF8005059
:105270000024104DADF80240ADF8084069462846BC
:1052800000F0A6F801221146284600F098F8012106
:10529000284600F07EF81D208DF80C0002208DF8C5
:1052A0000D008DF80E4001208DF80F0003A8FFF7C8
:1052B00061FE7FBD0004004038B50020164C009010
:1052C0000121204600F06FF8012820D113486A46DA
:1052D0000121006801F0ACFD0546114800236A4633
:1052E0004168491C4160011D0E48006802F0EEF85B
:1052F0000D486946006802F059F945B1009830B18F
:105300000A4960040860BFF34F8FBFF36F8F01211C
:10531000204600F03BF838BD0008004004000020A3
:1053200044000020080000200C00002004ED00E0F4
:105330007FB50D46044601210420FFF76FFE01945E
:10534000ADF800500024104DADF80240ADF8084013
:105350006946284600F03CF801221146284600F034
:105360002EF80121284600F014F81E208DF80C00BC
:1053700001208DF80D008DF80E408DF80F0003A868
:10538000FFF7F8FD7FBD000000080040C94301821F
:1053900070470029018802D041F0010101E021F0AD
:1053A00001010180704702460020138A92890B4256
:1053B00002EA010202D0002A00D001207047002A30
:1053C000828901D00A4300E08A438281704700004D
:1053D00030B50288164C174DA0420DD0A8420BD014
:1053E000B0F1804F08D0144B984205D0134B98422F
:1053F00002D0134B984203D122F070034A881A431B
:10540000104B984206D0104B984203D022F44073C0
:105410000A891A4302804A68C2620A880285A04249
:1054200001D0A84201D1897A01860121818230BD53
:10543000000001400004014000040040000800405A
:10544000000C0040001000400014004070B5154CE6
:1054500040F22551204600F035F800280ED02046B5
:1054600000F0BEF8104AC1B21088030406D4440408
:105470004FF0000306D50A2901D0138070BD40F417
:1054800000400DE00D2909D0C0F30D04074D401C6C
:1054900080B229551080C728EFD870BD40F48040F5
:1054A000108070BD0010014050000020F20000206C
:1054B0000029818902D041F4005101E021F400511A
:1054C0008181704770B501F01F0501260024C1F3EA
:1054D000421306FA05F2012B0FD0022B0FD0838A5C
:1054E0004FEA11210088134206FA01F600EA06008D
:1054F00001D000B10124204670BD8389F0E7038A02
:10550000EEE710B5C1F3421301F01F040121A140E1
:10551000012B07D0022B07D01430002A026805D0D7
:105520000A4304E00C30F8E71030F6E78A430260E3
:1055300010BD00007FB50446008A0D46C98820F4DE
:10554000405001432182A08941F20C618843A9881F
:105550002A8911436A8902431143A181A08A20F458
:105560004071A8890843A0826846FFF77BFD1A486E
:10557000844202D01948844201D1039800E0029885
:10558000A189090400EBC00101EB0010296801D5D5
:10559000490000E08900B0FBF1F06422B0FBF2F1B9
:1055A00009010B096FF018056B4300EB8300A38919
:1055B0001D044FF0320306D503EBC000B0FBF2F040
:1055C00000F0070005E003EB0010B0FBF2F000F084
:1055D0000F00084320817FBD0010014000140140EE
:1055E0008088C0F308007047FEE770477CB54FF431
:1055F0004070FFF7F1FCA82000F088F84FF4E1308C
:1056000000F0A2FEFFF794FCFBF73EFCFBF7EAFD7F
:10561000FBF724FA244D4FF478401024288023A06F
:10562000CDE900402346C82232211E20FFF7C0FBEF
:1056300023A0CDE900401023C82246211E20FFF7F9
:10564000B7FB22A0CDE900401023C8225A211E201A
:10565000FFF7AEFB21A0CDE900401023C8226E2148
:105660001E20FFF7A5FB1F2028801FA0CDE90040CA
:105670001023C82282211E20FFF79AFB1EA0CDE92D
:1056800000401023C82296211E20FFF791FB5321D2
:105690003120FFF7E3FDBDE87C4042F20F7142F29A
:1056A000CF00FFF745BE0000400000204578706C39
:1056B0006F7265722053544D33324634000000003F
:1056C00041444320544553540000000041544F4D81
:1056D00040414C49454E54454B0000003230313476
:1056E0002F352F3600000000414443315F434835D9
:1056F0005F56414C3A000000414443315F43483516
:105700005F564F4C3A302E303030560010B50446BC
:105710000420FFF749FD0A484FF47A71047014FB26
:1057200001F1012242804FF0E020026942F00202C2
:1057300002614161016941F00101016110BD000098
:105740004C00002070B5044602F004F801280CD08B
:10575000094D6888844203D3B4FBF0F001F03AF8B5
:105760006888B4FBF0F100FB11444FF47A70604399
:10577000BDE8704000F002B84C00002070B54FF05A
:10578000E02500216C69094AAB6912785043AA6987
:105790009A42FCD002D2A3EB020302E0A4EB020681
:1057A0003344194413468142F1D370BD4C000020AC
:1057B00070B5050005D140F2FB4214A118A0FAF71C
:1057C000C1FD1B4E3068854201D1002070BD00F044
:1057D000BBFE6C6900F0F4FEF06B844202D0306CCA
:1057E000844201D1022070BD1248844204D1A86ACB
:1057F0000028F7D1032070BD0E481438844202D02F
:105800000CB1012070BD042070BD00002E2E5C463E
:1058100072656552544F535C7461736B732E6300F1
:105820004572726F723A25732C25640D0A000000D0
:1058300068000020CC04002003490A885206FCD5E9
:10584000C2B28A80704700000010014008B5074DC1
:105850006424012300941A461946686801F0F0FA9E
:10586000C007F6D002A0FAF76DFDF2E700000020B5
:10587000BDD3CAD5B5BD62697430BACD6269743121
:10588000B6BCB1BBC9E8D6C3B5C4CFFBCFA20D0A25
:10589000000000000A4D0B4C4FF496760023324670
:1058A0001946E86801F038FC0128F7D1D4F8A402C1
:1058B00018B10020C4F8A402F0E70120FAE70000C4
:1058C0000000002000804242012080F31088FFF792
:1058D0008DFEFBF703F901F045FA084C0022042184
:1058E00060600A2001F0DCFBA0600322002101209F
:1058F00001F0D6FBE06001F093F9FEE70000002024
:105900002DE9F041184E0F460446F5683068001D39
:1059100000F070FD38B9306890F82C1001208840F4
:10592000316981433161601C07D137B13168BDE80D
:10593000F0410E48091D00F0FBBD30682C44AC421C
:105940004460316805D2306CBDE8F041091D00F0BB
:10595000D7BDF06B091D00F0D3FDB06A844200D2C0
:10596000B462BDE8F081000068000020CC04002093
:105970002DE9F041054600F0E7FD2D4EB068401CD2
:10598000B06030682B4F10B1706930B32BE03560D8
:10599000B068012827D1002404EB840007EB8000C5
:1059A00000F0A0FD641C202CF6D3234800F09AFDE3
:1059B0002148143000F096FD1F48283000F092FD79
:1059C0001D483C3000F08EFD1B48503000F08AFD31
:1059D0001948F0631430306405E03068E96AC06A41
:1059E000884200D83560706A0121401C706268648A
:1059F000E86A326981401143316100EB800007EBB6
:105A00008000291D00F094FD00F0DAFD7069002887
:105A10000CD03068E96AC06A884207D207494FF063
:105A200080500860BFF34F8FBFF36F8FBDE8F081E8
:105A300068000020FC0100207C04002004ED00E050
:105A400010B500F081FD0E4C2068A0B90D4800F0A3
:105A500049FD0C48143000F045FD0A48E060143060
:105A6000206100221021052001F01AFB206010B1F6
:105A700005A100F07BFEBDE8104000F0A1BD0000D4
:105A8000AC000020E0040020546D725100000000C2
:105A900070B5124E124D1CE001F010F9306820B1C3
:105AA000002401F0D1FFA4B901E00124F9E700F0DE
:105AB0004BFDF068C468201D00F09CFCA868401EE7
:105AC000A8606868401E686000F07AFD204600F01B
:105AD00052F868680028DFD170BD0000B8040020CB
